{
  "contractName": "PetCreator",
  "abi": [
    {
      "constant": true,
      "inputs": [
        {
          "internalType": "address",
          "name": "",
          "type": "address"
        }
      ],
      "name": "owners",
      "outputs": [
        {
          "internalType": "bool",
          "name": "",
          "type": "bool"
        }
      ],
      "payable": false,
      "stateMutability": "view",
      "type": "function"
    },
    {
      "constant": true,
      "inputs": [
        {
          "internalType": "uint256",
          "name": "",
          "type": "uint256"
        }
      ],
      "name": "pets",
      "outputs": [
        {
          "internalType": "address",
          "name": "",
          "type": "address"
        }
      ],
      "payable": false,
      "stateMutability": "view",
      "type": "function"
    },
    {
      "constant": false,
      "inputs": [
        {
          "internalType": "address",
          "name": "tobeCheckedOwner",
          "type": "address"
        }
      ],
      "name": "checkIfSenderAlreadyHasAPet",
      "outputs": [],
      "payable": true,
      "stateMutability": "payable",
      "type": "function"
    },
    {
      "constant": false,
      "inputs": [
        {
          "internalType": "string",
          "name": "_ownerName",
          "type": "string"
        },
        {
          "internalType": "string",
          "name": "_name",
          "type": "string"
        },
        {
          "internalType": "bool",
          "name": "_isMale",
          "type": "bool"
        },
        {
          "internalType": "uint256",
          "name": "_lastTimeFed",
          "type": "uint256"
        }
      ],
      "name": "createPet",
      "outputs": [],
      "payable": false,
      "stateMutability": "nonpayable",
      "type": "function"
    },
    {
      "constant": true,
      "inputs": [],
      "name": "getDeployedPets",
      "outputs": [
        {
          "internalType": "address[]",
          "name": "",
          "type": "address[]"
        }
      ],
      "payable": false,
      "stateMutability": "view",
      "type": "function"
    }
  ],
  "bytecode": "0x608060405234801561001057600080fd5b50610cbd806100206000396000f3fe60806040526004361061004a5760003560e01c8063022914a71461004f578063996fa50b14610096578063bb51c9b1146100be578063cfb869bf14610123578063f5e39c1714610169575b600080fd5b34801561005b57600080fd5b506100826004803603602081101561007257600080fd5b50356001600160a01b03166102aa565b604080519115158252519081900360200190f35b6100bc600480360360208110156100ac57600080fd5b50356001600160a01b03166102bf565b005b3480156100ca57600080fd5b506100d361030c565b60408051602080825283518183015283519192839290830191858101910280838360005b8381101561010f5781810151838201526020016100f7565b505050509050019250505060405180910390f35b34801561012f57600080fd5b5061014d6004803603602081101561014657600080fd5b503561036e565b604080516001600160a01b039092168252519081900360200190f35b34801561017557600080fd5b506100bc6004803603608081101561018c57600080fd5b8101906020810181356401000000008111156101a757600080fd5b8201836020820111156101b957600080fd5b803590602001918460018302840111640100000000831117156101db57600080fd5b91908080601f016020809104026020016040519081016040528093929190818152602001838380828437600092019190915250929594936020810193503591505064010000000081111561022e57600080fd5b82018360208201111561024057600080fd5b8035906020019184600183028401116401000000008311171561026257600080fd5b91908080601f01602080910402602001604051908101604052809392919081815260200183838082843760009201919091525092955050505080351515915060200135610395565b60016020526000908152604090205460ff1681565b6001600160a01b03811660009081526001602052604090205460ff16156102e557600080fd5b6001600160a01b03166000908152600160208190526040909120805460ff19169091179055565b6060600080548060200260200160405190810160405280929190818152602001828054801561036457602002820191906000526020600020905b81546001600160a01b03168152600190910190602001808311610346575b5050505050905090565b6000818154811061037b57fe5b6000918252602090912001546001600160a01b0316905081565b61039e336102bf565b600033858585856040516103b190610515565b6001600160a01b038616815282151560608201526080810182905260a060208083018281528751928401929092528651604084019160c08501919089019080838360005b8381101561040d5781810151838201526020016103f5565b50505050905090810190601f16801561043a5780820380516001836020036101000a031916815260200191505b50838103825286518152865160209182019188019080838360005b8381101561046d578181015183820152602001610455565b50505050905090810190601f16801561049a5780820380516001836020036101000a031916815260200191505b50975050505050505050604051809103906000f0801580156104c0573d6000803e3d6000fd5b50600080546001810182559080527f290decd9548b62a8d60345a988386fc84ba6bc95484008f6362f93160ef3e5630180546001600160a01b0319166001600160a01b03929092169190911790555050505050565b610766806105238339019056fe6080604052600080546001600160a01b0319167379906ec99fe449df7a06278f716e8a20408194da17905534801561003657600080fd5b50604051610766380380610766833981810160405260a081101561005957600080fd5b81516020830180516040519294929383019291908464010000000082111561008057600080fd5b90830190602082018581111561009557600080fd5b82516401000000008111828201881017156100af57600080fd5b82525081516020918201929091019080838360005b838110156100dc5781810151838201526020016100c4565b50505050905090810190601f1680156101095780820380516001836020036101000a031916815260200191505b506040526020018051604051939291908464010000000082111561012c57600080fd5b90830190602082018581111561014157600080fd5b825164010000000081118282018810171561015b57600080fd5b82525081516020918201929091019080838360005b83811015610188578181015183820152602001610170565b50505050905090810190601f1680156101b55780820380516001836020036101000a031916815260200191505b506040908152602082810151928201516001600160a01b03891660008181526006845293909320805460ff1916600190811790915580546001600160a01b031916909317909255865192945090925061021391600291870190610246565b508251610227906003906020860190610246565b506004805460ff191692151592909217909155600555506102e1915050565b828054600181600116156101000203166002900490600052602060002090601f016020900481019282601f1061028757805160ff19168380011785556102b4565b828001600101855582156102b4579182015b828111156102b4578251825591602001919060010190610299565b506102c09291506102c4565b5090565b6102de91905b808211156102c057600081556001016102ca565b90565b610476806102f06000396000f3fe60806040526004361061007b5760003560e01c80638baecc211161004e5780638baecc211461017b5780638d9ec7931461019a5780638da5cb5b146101c1578063f59dfdfb146101f25761007b565b8063022914a71461008057806306fdde03146100c7578063654a573c1461015157806365ac232014610166575b600080fd5b34801561008c57600080fd5b506100b3600480360360208110156100a357600080fd5b50356001600160a01b031661020f565b604080519115158252519081900360200190f35b3480156100d357600080fd5b506100dc610224565b6040805160208082528351818301528351919283929083019185019080838360005b838110156101165781810151838201526020016100fe565b50505050905090810190601f1680156101435780820380516001836020036101000a031916815260200191505b509250505060405180910390f35b34801561015d57600080fd5b506100b36102b2565b34801561017257600080fd5b506100dc6102bb565b6101986004803603602081101561019157600080fd5b5035610313565b005b3480156101a657600080fd5b506101af610397565b60408051918252519081900360200190f35b3480156101cd57600080fd5b506101d661039d565b604080516001600160a01b039092168252519081900360200190f35b6101986004803603602081101561020857600080fd5b50356103ac565b60066020526000908152604090205460ff1681565b6003805460408051602060026001851615610100026000190190941693909304601f810184900484028201840190925281815292918301828280156102aa5780601f1061027f576101008083540402835291602001916102aa565b820191906000526020600020905b81548152906001019060200180831161028d57829003601f168201915b505050505081565b60045460ff1681565b6002805460408051602060018416156101000260001901909316849004601f810184900484028201840190925281815292918301828280156102aa5780601f1061027f576101008083540402835291602001916102aa565b6001546001600160a01b031633141561032b57600080fd5b6005546305265c0001811161033f57600080fd5b6702c68af0bb14000034101561035457600080fd5b6005819055600080546040516001600160a01b03909116913480156108fc02929091818181858888f19350505050158015610393573d6000803e3d6000fd5b5050565b60055481565b6001546001600160a01b031681565b6001546001600160a01b031633146103c357600080fd5b662386f26fc100003410156103d757600080fd5b6701aa535d3d0c000034106103f0576005819055610407565b60058054626ddd00662386f26fc100003404020190555b600080546040516001600160a01b03909116913480156108fc02929091818181858888f19350505050158015610393573d6000803e3d6000fdfea265627a7a7231582060646f30ebc921e79fbd5229a0c9a411273dd79cc0362052cf4150e3427ec01864736f6c63430005100032a265627a7a7231582014a186d5655d6e3c4a2ba316caf7ed8ddb550d719b2b9b1782030de248e9a81964736f6c63430005100032",
  "source": "pragma solidity ^0.5.0;\n\n/**\n * @title Pet creator to create Tamacoinchi smart contract\n * @author Enis Tola\n */\n\nimport \"./Tamacoinchi.sol\";\n\ncontract PetCreator {\n    // list of pets\n    address[] public pets;\n\n    // a mapping list of owner address, to check if owner already has a pet\n    mapping(address => bool) public owners;\n\n    function checkIfSenderAlreadyHasAPet(address tobeCheckedOwner)\n        public\n        payable\n    {\n        require(!owners[tobeCheckedOwner]);\n        owners[tobeCheckedOwner] = true;\n    }\n\n    /**\n     * @dev Create new pet and set necessary values\n     * @param _ownerName name of pets owner\n     * @param _name name of the pet\n     * @param _isMale gender of the pet\n     * @param _lastTimeFed the last time the pet got fed. important to determine life levels after time!\n     */\n    function createPet(\n        string memory _ownerName,\n        string memory _name,\n        bool _isMale,\n        uint256 _lastTimeFed\n    ) public {\n        // Disable check before running tests\n        checkIfSenderAlreadyHasAPet(msg.sender);\n        address newPet =\n            address(\n                new Tamacoinchi(\n                    msg.sender,\n                    _ownerName,\n                    _name,\n                    _isMale,\n                    _lastTimeFed\n                )\n            );\n\n        pets.push(newPet);\n    }\n\n    /**\n     * @dev get all deployed Pets\n     */\n    function getDeployedPets() public view returns (address[] memory) {\n        return pets;\n    }\n}\n",
  "sourcePath": "/projects/BC-Group7/ethereum/contracts/PetCreator.sol",
  "compiler": {
    "name": "solc",
    "version": "0.5.16+commit.9c3226ce.Emscripten.clang"
  },
  "schemaVersion": "3.4.0",
  "updatedAt": "2021-07-06T20:32:14.158Z",
  "networkType": "ethereum",
  "devdoc": {
    "methods": {
      "createPet(string,string,bool,uint256)": {
        "details": "Create new pet and set necessary values",
        "params": {
          "_isMale": "gender of the pet",
          "_lastTimeFed": "the last time the pet got fed. important to determine life levels after time!",
          "_name": "name of the pet",
          "_ownerName": "name of pets owner"
        }
      },
      "getDeployedPets()": {
        "details": "get all deployed Pets"
      }
    }
  },
  "userdoc": {
    "methods": {}
  }
}