{
  "contractName": "PetCreator",
  "abi": [
    {
      "constant": true,
      "inputs": [
        {
          "internalType": "uint256",
          "name": "",
          "type": "uint256"
        }
      ],
      "name": "pets",
      "outputs": [
        {
          "internalType": "address",
          "name": "",
          "type": "address"
        }
      ],
      "payable": false,
      "stateMutability": "view",
      "type": "function"
    },
    {
      "constant": false,
      "inputs": [
        {
          "internalType": "string",
          "name": "_name",
          "type": "string"
        },
        {
          "internalType": "string",
          "name": "ownerName",
          "type": "string"
        },
        {
          "internalType": "bool",
          "name": "_isMale",
          "type": "bool"
        },
        {
          "internalType": "uint256",
          "name": "_lastTimeFed",
          "type": "uint256"
        }
      ],
      "name": "createPet",
      "outputs": [],
      "payable": false,
      "stateMutability": "nonpayable",
      "type": "function"
    },
    {
      "constant": true,
      "inputs": [],
      "name": "getDeployedPets",
      "outputs": [
        {
          "internalType": "address[]",
          "name": "",
          "type": "address[]"
        }
      ],
      "payable": false,
      "stateMutability": "view",
      "type": "function"
    }
  ],
  "bytecode": "0x608060405234801561001057600080fd5b5061091b806100206000396000f3fe608060405234801561001057600080fd5b50600436106100415760003560e01c8063bb51c9b114610046578063cfb869bf1461009e578063f5e39c17146100d7575b600080fd5b61004e61020d565b60408051602080825283518183015283519192839290830191858101910280838360005b8381101561008a578181015183820152602001610072565b505050509050019250505060405180910390f35b6100bb600480360360208110156100b457600080fd5b503561026f565b604080516001600160a01b039092168252519081900360200190f35b61020b600480360360808110156100ed57600080fd5b81019060208101813564010000000081111561010857600080fd5b82018360208201111561011a57600080fd5b8035906020019184600183028401116401000000008311171561013c57600080fd5b91908080601f016020809104026020016040519081016040528093929190818152602001838380828437600092019190915250929594936020810193503591505064010000000081111561018f57600080fd5b8201836020820111156101a157600080fd5b803590602001918460018302840111640100000000831117156101c357600080fd5b91908080601f01602080910402602001604051908101604052809392919081815260200183838082843760009201919091525092955050505080351515915060200135610296565b005b6060600080548060200260200160405190810160405280929190818152602001828054801561026557602002820191906000526020600020905b81546001600160a01b03168152600190910190602001808311610247575b5050505050905090565b6000818154811061027c57fe5b6000918252602090912001546001600160a01b0316905081565b600033848685856040516102a99061040d565b6001600160a01b038616815282151560608201526080810182905260a060208083018281528751928401929092528651604084019160c08501919089019080838360005b838110156103055781810151838201526020016102ed565b50505050905090810190601f1680156103325780820380516001836020036101000a031916815260200191505b50838103825286518152865160209182019188019080838360005b8381101561036557818101518382015260200161034d565b50505050905090810190601f1680156103925780820380516001836020036101000a031916815260200191505b50975050505050505050604051809103906000f0801580156103b8573d6000803e3d6000fd5b50600080546001810182559080527f290decd9548b62a8d60345a988386fc84ba6bc95484008f6362f93160ef3e5630180546001600160a01b0319166001600160a01b03929092169190911790555050505050565b6104cc8061041b8339019056fe608060405234801561001057600080fd5b506040516104cc3803806104cc833981810160405260a081101561003357600080fd5b81516020830180516040519294929383019291908464010000000082111561005a57600080fd5b90830190602082018581111561006f57600080fd5b825164010000000081118282018810171561008957600080fd5b82525081516020918201929091019080838360005b838110156100b657818101518382015260200161009e565b50505050905090810190601f1680156100e35780820380516001836020036101000a031916815260200191505b506040526020018051604051939291908464010000000082111561010657600080fd5b90830190602082018581111561011b57600080fd5b825164010000000081118282018810171561013557600080fd5b82525081516020918201929091019080838360005b8381101561016257818101518382015260200161014a565b50505050905090810190601f16801561018f5780820380516001836020036101000a031916815260200191505b5060409081526020828101519290910151600080546001600160a01b0319166001600160a01b038a16179055865192945092506101d191600191870190610204565b5082516101e5906002906020860190610204565b506003805460ff1916921515929092179091556004555061029f915050565b828054600181600116156101000203166002900490600052602060002090601f016020900481019282601f1061024557805160ff1916838001178555610272565b82800160010185558215610272579182015b82811115610272578251825591602001919060010190610257565b5061027e929150610282565b5090565b61029c91905b8082111561027e5760008155600101610288565b90565b61021e806102ae6000396000f3fe60806040526004361061004a5760003560e01c8063022914a71461004f578063705115d1146100965780638baecc21146100bd5780638da5cb5b146100dc578063f59dfdfb1461010d575b600080fd5b34801561005b57600080fd5b506100826004803603602081101561007257600080fd5b50356001600160a01b031661012a565b604080519115158252519081900360200190f35b3480156100a257600080fd5b506100ab61013f565b60408051918252519081900360200190f35b6100da600480360360208110156100d357600080fd5b5035610145565b005b3480156100e857600080fd5b506100f161018e565b604080516001600160a01b039092168252519081900360200190f35b6100da6004803603602081101561012357600080fd5b503561019d565b60056020526000908152604090205460ff1681565b60065481565b3360009081526005602052604090205460ff1661016157600080fd5b6004546305265c0001811161017557600080fd5b6722b1c8c1227a0000341161018957600080fd5b600455565b6000546001600160a01b031681565b3360009081526005602052604090205460ff166101b957600080fd5b630a4cb80034026305265c008110156101df5760048054630107ac0034020190556101e5565b60048290555b505056fea265627a7a723158207a1ebe00919abf968ec57409a0ccc6d5057b423daee4e4e016d03e311598b33c64736f6c63430005100032a265627a7a7231582028d001c459c18221ea55443618da14556070b1afb85f0e0ec2dd267e6875d1fa64736f6c63430005100032",
  "source": "pragma solidity ^0.5.0;\n\n/**\n * @title Pet creator to create Tamacoinchi smart contract\n * @author Enis Tola\n */\n\nimport \"./Tamacoinchi.sol\";\n\ncontract PetCreator {\n    // list of rooms\n    address[] public pets;\n\n    /**\n     * @dev Create new pet and set necessary values\n     * @param _name name of the pet\n     * @param _isMale gender of the pet\n     * @param _lastTimeFed the last time the pet got fed. important to determine life levels after time!\n     */\n    function createPet(\n        string memory _name,\n        string memory ownerName,\n        bool _isMale,\n        uint256 _lastTimeFed\n    ) public {\n        address newPet =\n            address(\n                new Tamacoinchi(\n                    msg.sender,\n                    ownerName,\n                    _name,\n                    _isMale,\n                    _lastTimeFed\n                )\n            );\n\n        pets.push(newPet);\n    }\n\n    /**\n     * @dev get all deployed Pets\n     */\n    function getDeployedPets() public view returns (address[] memory) {\n        return pets;\n    }\n}\n",
  "sourcePath": "/projects/BC-Group7/ethereum/contracts/PetCreator.sol",
  "compiler": {
    "name": "solc",
    "version": "0.5.16+commit.9c3226ce.Emscripten.clang"
  },
  "schemaVersion": "3.4.0",
  "updatedAt": "2021-07-06T08:13:27.823Z",
  "devdoc": {
    "methods": {
      "createPet(string,string,bool,uint256)": {
        "details": "Create new pet and set necessary values",
        "params": {
          "_isMale": "gender of the pet",
          "_lastTimeFed": "the last time the pet got fed. important to determine life levels after time!",
          "_name": "name of the pet"
        }
      },
      "getDeployedPets()": {
        "details": "get all deployed Pets"
      }
    }
  },
  "userdoc": {
    "methods": {}
  }
}