{
  "contractName": "PetCreator",
  "abi": [
    {
      "constant": true,
      "inputs": [
        {
          "internalType": "uint256",
          "name": "",
          "type": "uint256"
        }
      ],
      "name": "pets",
      "outputs": [
        {
          "internalType": "address",
          "name": "",
          "type": "address"
        }
      ],
      "payable": false,
      "stateMutability": "view",
      "type": "function"
    },
    {
      "constant": false,
      "inputs": [
        {
          "internalType": "string",
          "name": "_ownerName",
          "type": "string"
        },
        {
          "internalType": "string",
          "name": "_name",
          "type": "string"
        },
        {
          "internalType": "bool",
          "name": "_isMale",
          "type": "bool"
        },
        {
          "internalType": "uint256",
          "name": "_lastTimeFed",
          "type": "uint256"
        }
      ],
      "name": "createPet",
      "outputs": [],
      "payable": false,
      "stateMutability": "nonpayable",
      "type": "function"
    },
    {
      "constant": true,
      "inputs": [],
      "name": "getDeployedPets",
      "outputs": [
        {
          "internalType": "address[]",
          "name": "",
          "type": "address[]"
        }
      ],
      "payable": false,
      "stateMutability": "view",
      "type": "function"
    }
  ],
  "bytecode": "0x608060405234801561001057600080fd5b50610b2a806100206000396000f3fe608060405234801561001057600080fd5b50600436106100415760003560e01c8063bb51c9b114610046578063cfb869bf1461009e578063f5e39c17146100d7575b600080fd5b61004e61020d565b60408051602080825283518183015283519192839290830191858101910280838360005b8381101561008a578181015183820152602001610072565b505050509050019250505060405180910390f35b6100bb600480360360208110156100b457600080fd5b503561026f565b604080516001600160a01b039092168252519081900360200190f35b61020b600480360360808110156100ed57600080fd5b81019060208101813564010000000081111561010857600080fd5b82018360208201111561011a57600080fd5b8035906020019184600183028401116401000000008311171561013c57600080fd5b91908080601f016020809104026020016040519081016040528093929190818152602001838380828437600092019190915250929594936020810193503591505064010000000081111561018f57600080fd5b8201836020820111156101a157600080fd5b803590602001918460018302840111640100000000831117156101c357600080fd5b91908080601f01602080910402602001604051908101604052809392919081815260200183838082843760009201919091525092955050505080351515915060200135610296565b005b6060600080548060200260200160405190810160405280929190818152602001828054801561026557602002820191906000526020600020905b81546001600160a01b03168152600190910190602001808311610247575b5050505050905090565b6000818154811061027c57fe5b6000918252602090912001546001600160a01b0316905081565b600033858585856040516102a99061040d565b6001600160a01b038616815282151560608201526080810182905260a060208083018281528751928401929092528651604084019160c08501919089019080838360005b838110156103055781810151838201526020016102ed565b50505050905090810190601f1680156103325780820380516001836020036101000a031916815260200191505b50838103825286518152865160209182019188019080838360005b8381101561036557818101518382015260200161034d565b50505050905090810190601f1680156103925780820380516001836020036101000a031916815260200191505b50975050505050505050604051809103906000f0801580156103b8573d6000803e3d6000fd5b50600080546001810182559080527f290decd9548b62a8d60345a988386fc84ba6bc95484008f6362f93160ef3e5630180546001600160a01b0319166001600160a01b03929092169190911790555050505050565b6106db8061041b8339019056fe6080604052600080546001600160a01b03191673d0615397654c2c4834a85d879c0c91468bce8f1b17905534801561003657600080fd5b506040516106db3803806106db833981810160405260a081101561005957600080fd5b81516020830180516040519294929383019291908464010000000082111561008057600080fd5b90830190602082018581111561009557600080fd5b82516401000000008111828201881017156100af57600080fd5b82525081516020918201929091019080838360005b838110156100dc5781810151838201526020016100c4565b50505050905090810190601f1680156101095780820380516001836020036101000a031916815260200191505b506040526020018051604051939291908464010000000082111561012c57600080fd5b90830190602082018581111561014157600080fd5b825164010000000081118282018810171561015b57600080fd5b82525081516020918201929091019080838360005b83811015610188578181015183820152602001610170565b50505050905090810190601f1680156101b55780820380516001836020036101000a031916815260200191505b5060409081526020828101519290910151600180546001600160a01b0319166001600160a01b038a16179055865192945092506101f79160029187019061022a565b50825161020b90600390602086019061022a565b506004805460ff191692151592909217909155600555506102c5915050565b828054600181600116156101000203166002900490600052602060002090601f016020900481019282601f1061026b57805160ff1916838001178555610298565b82800160010185558215610298579182015b8281111561029857825182559160200191906001019061027d565b506102a49291506102a8565b5090565b6102c291905b808211156102a457600081556001016102ae565b90565b610407806102d46000396000f3fe6080604052600436106100705760003560e01c80638baecc211161004e5780638baecc211461013d5780638d9ec7931461015c5780638da5cb5b14610183578063f59dfdfb146101b457610070565b806306fdde0314610075578063654a573c146100ff57806365ac232014610128575b600080fd5b34801561008157600080fd5b5061008a6101d1565b6040805160208082528351818301528351919283929083019185019080838360005b838110156100c45781810151838201526020016100ac565b50505050905090810190601f1680156100f15780820380516001836020036101000a031916815260200191505b509250505060405180910390f35b34801561010b57600080fd5b5061011461025f565b604080519115158252519081900360200190f35b34801561013457600080fd5b5061008a610268565b61015a6004803603602081101561015357600080fd5b50356102c0565b005b34801561016857600080fd5b50610171610344565b60408051918252519081900360200190f35b34801561018f57600080fd5b5061019861034a565b604080516001600160a01b039092168252519081900360200190f35b61015a600480360360208110156101ca57600080fd5b5035610359565b6003805460408051602060026001851615610100026000190190941693909304601f810184900484028201840190925281815292918301828280156102575780601f1061022c57610100808354040283529160200191610257565b820191906000526020600020905b81548152906001019060200180831161023a57829003601f168201915b505050505081565b60045460ff1681565b6002805460408051602060018416156101000260001901909316849004601f810184900484028201840190925281815292918301828280156102575780601f1061022c57610100808354040283529160200191610257565b6001546001600160a01b03163314156102d857600080fd5b6005546305265c000181116102ec57600080fd5b671bc16d674ec8000034101561030157600080fd5b6005819055600080546040516001600160a01b03909116913480156108fc02929091818181858888f19350505050158015610340573d6000803e3d6000fd5b5050565b60055481565b6001546001600160a01b031681565b6001546001600160a01b0316331461037057600080fd5b670de0b6b3a764000034111561038a576005819055610398565b600580546283d60034020190555b600080546040516001600160a01b03909116913480156108fc02929091818181858888f19350505050158015610340573d6000803e3d6000fdfea265627a7a723158202e3fe558c5f9cfe252bef4a8a5ef8ca977a5fc031abf1ea28d7a03de590017f164736f6c63430005100032a265627a7a72315820d2f27f27e716c07746f4818c438fbe35cd5c2729093be66cf6a782ad86e053e764736f6c63430005100032",
  "source": "pragma solidity ^0.5.0;\n\n/**\n * @title Pet creator to create Tamacoinchi smart contract\n * @author Enis Tola\n */\n\nimport \"./Tamacoinchi.sol\";\n\ncontract PetCreator {\n    // list of rooms\n    address[] public pets;\n\n    /**\n     * @dev Create new pet and set necessary values\n     * @param _ownerName name of pets owner\n     * @param _name name of the pet\n     * @param _isMale gender of the pet\n     * @param _lastTimeFed the last time the pet got fed. important to determine life levels after time!\n     */\n    function createPet(\n        string memory _ownerName,\n        string memory _name,\n        bool _isMale,\n        uint256 _lastTimeFed\n    ) public {\n        address newPet =\n            address(\n                new Tamacoinchi(\n                    msg.sender,\n                    _ownerName,\n                    _name,\n                    _isMale,\n                    _lastTimeFed\n                )\n            );\n\n        pets.push(newPet);\n    }\n\n    /**\n     * @dev get all deployed Pets\n     */\n    function getDeployedPets() public view returns (address[] memory) {\n        return pets;\n    }\n}\n",
  "sourcePath": "/projects/BC-Group7/ethereum/contracts/PetCreator.sol",
  "compiler": {
    "name": "solc",
    "version": "0.5.16+commit.9c3226ce.Emscripten.clang"
  },
  "schemaVersion": "3.4.0",
  "updatedAt": "2021-07-06T12:32:44.250Z",
  "networkType": "ethereum",
  "devdoc": {
    "methods": {
      "createPet(string,string,bool,uint256)": {
        "details": "Create new pet and set necessary values",
        "params": {
          "_isMale": "gender of the pet",
          "_lastTimeFed": "the last time the pet got fed. important to determine life levels after time!",
          "_name": "name of the pet",
          "_ownerName": "name of pets owner"
        }
      },
      "getDeployedPets()": {
        "details": "get all deployed Pets"
      }
    }
  },
  "userdoc": {
    "methods": {}
  }
}