{
  "contractName": "PetCreator",
  "abi": [
    {
      "constant": true,
      "inputs": [
        {
          "internalType": "address",
          "name": "",
          "type": "address"
        }
      ],
      "name": "owners",
      "outputs": [
        {
          "internalType": "bool",
          "name": "",
          "type": "bool"
        }
      ],
      "payable": false,
      "stateMutability": "view",
      "type": "function"
    },
    {
      "constant": true,
      "inputs": [
        {
          "internalType": "uint256",
          "name": "",
          "type": "uint256"
        }
      ],
      "name": "pets",
      "outputs": [
        {
          "internalType": "address",
          "name": "",
          "type": "address"
        }
      ],
      "payable": false,
      "stateMutability": "view",
      "type": "function"
    },
    {
      "constant": false,
      "inputs": [
        {
          "internalType": "address",
          "name": "tobeCheckedOwner",
          "type": "address"
        }
      ],
      "name": "checkIfSenderAlreadyHasAPet",
      "outputs": [],
      "payable": true,
      "stateMutability": "payable",
      "type": "function"
    },
    {
      "constant": false,
      "inputs": [
        {
          "internalType": "string",
          "name": "_ownerName",
          "type": "string"
        },
        {
          "internalType": "string",
          "name": "_name",
          "type": "string"
        },
        {
          "internalType": "bool",
          "name": "_isMale",
          "type": "bool"
        },
        {
          "internalType": "uint256",
          "name": "_lastTimeFed",
          "type": "uint256"
        }
      ],
      "name": "createPet",
      "outputs": [],
      "payable": false,
      "stateMutability": "nonpayable",
      "type": "function"
    },
    {
      "constant": true,
      "inputs": [],
      "name": "getDeployedPets",
      "outputs": [
        {
          "internalType": "address[]",
          "name": "",
          "type": "address[]"
        }
      ],
      "payable": false,
      "stateMutability": "view",
      "type": "function"
    }
  ],
  "bytecode": "0x608060405234801561001057600080fd5b50610f5b806100206000396000f3fe60806040526004361061004a5760003560e01c8063022914a71461004f578063996fa50b14610096578063bb51c9b1146100be578063cfb869bf14610123578063f5e39c1714610169575b600080fd5b34801561005b57600080fd5b506100826004803603602081101561007257600080fd5b50356001600160a01b03166102aa565b604080519115158252519081900360200190f35b6100bc600480360360208110156100ac57600080fd5b50356001600160a01b03166102bf565b005b3480156100ca57600080fd5b506100d361030c565b60408051602080825283518183015283519192839290830191858101910280838360005b8381101561010f5781810151838201526020016100f7565b505050509050019250505060405180910390f35b34801561012f57600080fd5b5061014d6004803603602081101561014657600080fd5b503561036e565b604080516001600160a01b039092168252519081900360200190f35b34801561017557600080fd5b506100bc6004803603608081101561018c57600080fd5b8101906020810181356401000000008111156101a757600080fd5b8201836020820111156101b957600080fd5b803590602001918460018302840111640100000000831117156101db57600080fd5b91908080601f016020809104026020016040519081016040528093929190818152602001838380828437600092019190915250929594936020810193503591505064010000000081111561022e57600080fd5b82018360208201111561024057600080fd5b8035906020019184600183028401116401000000008311171561026257600080fd5b91908080601f01602080910402602001604051908101604052809392919081815260200183838082843760009201919091525092955050505080351515915060200135610395565b60016020526000908152604090205460ff1681565b6001600160a01b03811660009081526001602052604090205460ff16156102e557600080fd5b6001600160a01b03166000908152600160208190526040909120805460ff19169091179055565b6060600080548060200260200160405190810160405280929190818152602001828054801561036457602002820191906000526020600020905b81546001600160a01b03168152600190910190602001808311610346575b5050505050905090565b6000818154811061037b57fe5b6000918252602090912001546001600160a01b0316905081565b600033858585856040516103a89061050c565b6001600160a01b038616815282151560608201526080810182905260a060208083018281528751928401929092528651604084019160c08501919089019080838360005b838110156104045781810151838201526020016103ec565b50505050905090810190601f1680156104315780820380516001836020036101000a031916815260200191505b50838103825286518152865160209182019188019080838360005b8381101561046457818101518382015260200161044c565b50505050905090810190601f1680156104915780820380516001836020036101000a031916815260200191505b50975050505050505050604051809103906000f0801580156104b7573d6000803e3d6000fd5b50600080546001810182559080527f290decd9548b62a8d60345a988386fc84ba6bc95484008f6362f93160ef3e5630180546001600160a01b0319166001600160a01b03929092169190911790555050505050565b610a0d8061051a8339019056fe6080604052600080546001600160a01b0319167379906ec99fe449df7a06278f716e8a20408194da17905534801561003657600080fd5b50604051610a0d380380610a0d833981810160405260a081101561005957600080fd5b81516020830180516040519294929383019291908464010000000082111561008057600080fd5b90830190602082018581111561009557600080fd5b82516401000000008111828201881017156100af57600080fd5b82525081516020918201929091019080838360005b838110156100dc5781810151838201526020016100c4565b50505050905090810190601f1680156101095780820380516001836020036101000a031916815260200191505b506040526020018051604051939291908464010000000082111561012c57600080fd5b90830190602082018581111561014157600080fd5b825164010000000081118282018810171561015b57600080fd5b82525081516020918201929091019080838360005b83811015610188578181015183820152602001610170565b50505050905090810190601f1680156101b55780820380516001836020036101000a031916815260200191505b506040908152602082810151928201516001600160a01b03891660008181526006845293909320805460ff1916600190811790915580546001600160a01b031916909317909255865192945090925061021391600291870190610246565b508251610227906003906020860190610246565b506004805460ff191692151592909217909155600555506102e1915050565b828054600181600116156101000203166002900490600052602060002090601f016020900481019282601f1061028757805160ff19168380011785556102b4565b828001600101855582156102b4579182015b828111156102b4578251825591602001919060010190610299565b506102c09291506102c4565b5090565b6102de91905b808211156102c057600081556001016102ca565b90565b61071d806102f06000396000f3fe6080604052600436106100865760003560e01c806365ac23201161005957806365ac2320146102a85780638baecc21146102bd5780638d9ec793146102dc5780638da5cb5b14610303578063f59dfdfb1461033457610086565b8063022914a71461008b57806306fdde03146100d257806364316f371461015c578063654a573c14610293575b600080fd5b34801561009757600080fd5b506100be600480360360208110156100ae57600080fd5b50356001600160a01b0316610351565b604080519115158252519081900360200190f35b3480156100de57600080fd5b506100e7610366565b6040805160208082528351818301528351919283929083019185019080838360005b83811015610121578181015183820152602001610109565b50505050905090810190601f16801561014e5780820380516001836020036101000a031916815260200191505b509250505060405180910390f35b34801561016857600080fd5b506101716103f4565b60405180876001600160a01b03166001600160a01b03168152602001866001600160a01b03166001600160a01b03168152602001806020018060200185151515158152602001848152602001838103835287818151815260200191508051906020019080838360005b838110156101f25781810151838201526020016101da565b50505050905090810190601f16801561021f5780820380516001836020036101000a031916815260200191505b50838103825286518152865160209182019188019080838360005b8381101561025257818101518382015260200161023a565b50505050905090810190601f16801561027f5780820380516001836020036101000a031916815260200191505b509850505050505050505060405180910390f35b34801561029f57600080fd5b506100be610559565b3480156102b457600080fd5b506100e7610562565b6102da600480360360208110156102d357600080fd5b50356105ba565b005b3480156102e857600080fd5b506102f161063e565b60408051918252519081900360200190f35b34801561030f57600080fd5b50610318610644565b604080516001600160a01b039092168252519081900360200190f35b6102da6004803603602081101561034a57600080fd5b5035610653565b60066020526000908152604090205460ff1681565b6003805460408051602060026001851615610100026000190190941693909304601f810184900484028201840190925281815292918301828280156103ec5780601f106103c1576101008083540402835291602001916103ec565b820191906000526020600020905b8154815290600101906020018083116103cf57829003601f168201915b505050505081565b6001805460045460055460028054604080516020610100988416159890980260001901909216839004601f81018890048802830188019091528082526000968796606096879689968796309687966001600160a01b0390961695929460039460ff9091169390929186918301828280156104af5780601f10610484576101008083540402835291602001916104af565b820191906000526020600020905b81548152906001019060200180831161049257829003601f168201915b5050865460408051602060026001851615610100026000190190941693909304601f81018490048402820184019092528181529599508894509250840190508282801561053d5780601f106105125761010080835404028352916020019161053d565b820191906000526020600020905b81548152906001019060200180831161052057829003601f168201915b5050505050925096509650965096509650965050909192939495565b60045460ff1681565b6002805460408051602060018416156101000260001901909316849004601f810184900484028201840190925281815292918301828280156103ec5780601f106103c1576101008083540402835291602001916103ec565b6001546001600160a01b03163314156105d257600080fd5b6005546305265c000181116105e657600080fd5b6702c68af0bb1400003410156105fb57600080fd5b6005819055600080546040516001600160a01b03909116913480156108fc02929091818181858888f1935050505015801561063a573d6000803e3d6000fd5b5050565b60055481565b6001546001600160a01b031681565b6001546001600160a01b0316331461066a57600080fd5b662386f26fc1000034101561067e57600080fd5b6701aa535d3d0c000034106106975760058190556106ae565b60058054626ddd00662386f26fc100003404020190555b600080546040516001600160a01b03909116913480156108fc02929091818181858888f1935050505015801561063a573d6000803e3d6000fdfea265627a7a723158203b797cdb2a70d8a3bba28b5083ad3797d5ab41857463819bc21fc2a520391e2664736f6c63430005100032a265627a7a723158209cbda8fb70f637a5e347ca1ce47e02391e83922f71cc7c4dfc184ee8fbe0576464736f6c63430005100032",
  "source": "pragma solidity ^0.5.0;\n\n/**\n * @title Pet creator to create Tamacoinchi smart contract\n * @author Enis Tola\n */\n\nimport \"./Tamacoinchi.sol\";\n\ncontract PetCreator {\n    // list of pets\n    address[] public pets;\n\n    // a mapping list of owner address, to check if owner already has a pet\n    mapping(address => bool) public owners;\n\n    function checkIfSenderAlreadyHasAPet(address tobeCheckedOwner)\n        public\n        payable\n    {\n        require(!owners[tobeCheckedOwner]);\n        owners[tobeCheckedOwner] = true;\n    }\n\n    /**\n     * @dev Create new pet and set necessary values\n     * @param _ownerName name of pets owner\n     * @param _name name of the pet\n     * @param _isMale gender of the pet\n     * @param _lastTimeFed the last time the pet got fed. important to determine life levels after time!\n     */\n    function createPet(\n        string memory _ownerName,\n        string memory _name,\n        bool _isMale,\n        uint256 _lastTimeFed\n    ) public {\n        // Disable check before running tests\n        // checkIfSenderAlreadyHasAPet(msg.sender);\n        address newPet =\n            address(\n                new Tamacoinchi(\n                    msg.sender,\n                    _ownerName,\n                    _name,\n                    _isMale,\n                    _lastTimeFed\n                )\n            );\n\n        pets.push(newPet);\n    }\n\n    /**\n     * @dev get all deployed Pets\n     */\n    function getDeployedPets() public view returns (address[] memory) {\n        return pets;\n    }\n}\n",
  "sourcePath": "/projects/BC-Group7/ethereum/contracts/PetCreator.sol",
  "compiler": {
    "name": "solc",
    "version": "0.5.16+commit.9c3226ce.Emscripten.clang"
  },
  "schemaVersion": "3.4.0",
  "updatedAt": "2021-07-07T17:08:14.602Z",
  "networkType": "ethereum",
  "devdoc": {
    "methods": {
      "createPet(string,string,bool,uint256)": {
        "details": "Create new pet and set necessary values",
        "params": {
          "_isMale": "gender of the pet",
          "_lastTimeFed": "the last time the pet got fed. important to determine life levels after time!",
          "_name": "name of the pet",
          "_ownerName": "name of pets owner"
        }
      },
      "getDeployedPets()": {
        "details": "get all deployed Pets"
      }
    }
  },
  "userdoc": {
    "methods": {}
  }
}