{
  "contractName": "Tamacoinchi",
  "abi": [
    {
      "inputs": [
        {
          "internalType": "address",
          "name": "_owner",
          "type": "address"
        },
        {
          "internalType": "string",
          "name": "_ownerName",
          "type": "string"
        },
        {
          "internalType": "string",
          "name": "_name",
          "type": "string"
        },
        {
          "internalType": "bool",
          "name": "_isMale",
          "type": "bool"
        },
        {
          "internalType": "uint256",
          "name": "_lastTimeFed",
          "type": "uint256"
        }
      ],
      "payable": false,
      "stateMutability": "nonpayable",
      "type": "constructor"
    },
    {
      "constant": true,
      "inputs": [],
      "name": "numberOfPets",
      "outputs": [
        {
          "internalType": "uint256",
          "name": "",
          "type": "uint256"
        }
      ],
      "payable": false,
      "stateMutability": "view",
      "type": "function"
    },
    {
      "constant": true,
      "inputs": [],
      "name": "owner",
      "outputs": [
        {
          "internalType": "address",
          "name": "",
          "type": "address"
        }
      ],
      "payable": false,
      "stateMutability": "view",
      "type": "function"
    },
    {
      "constant": true,
      "inputs": [
        {
          "internalType": "address",
          "name": "",
          "type": "address"
        }
      ],
      "name": "owners",
      "outputs": [
        {
          "internalType": "bool",
          "name": "",
          "type": "bool"
        }
      ],
      "payable": false,
      "stateMutability": "view",
      "type": "function"
    },
    {
      "constant": false,
      "inputs": [
        {
          "internalType": "uint256",
          "name": "currentTime",
          "type": "uint256"
        }
      ],
      "name": "feed",
      "outputs": [],
      "payable": true,
      "stateMutability": "payable",
      "type": "function"
    },
    {
      "constant": false,
      "inputs": [
        {
          "internalType": "uint256",
          "name": "currentTime",
          "type": "uint256"
        }
      ],
      "name": "revive",
      "outputs": [],
      "payable": true,
      "stateMutability": "payable",
      "type": "function"
    }
  ],
  "bytecode": "0x608060405234801561001057600080fd5b506040516104d03803806104d0833981810160405260a081101561003357600080fd5b81516020830180516040519294929383019291908464010000000082111561005a57600080fd5b90830190602082018581111561006f57600080fd5b825164010000000081118282018810171561008957600080fd5b82525081516020918201929091019080838360005b838110156100b657818101518382015260200161009e565b50505050905090810190601f1680156100e35780820380516001836020036101000a031916815260200191505b506040526020018051604051939291908464010000000082111561010657600080fd5b90830190602082018581111561011b57600080fd5b825164010000000081118282018810171561013557600080fd5b82525081516020918201929091019080838360005b8381101561016257818101518382015260200161014a565b50505050905090810190601f16801561018f5780820380516001836020036101000a031916815260200191505b5060409081526020828101519290910151600080546001600160a01b0319166001600160a01b038a16179055865192945092506101d191600191870190610208565b5082516101e5906002906020860190610208565b506003805460ff19169215159290921790915560045550506032600555506102a3565b828054600181600116156101000203166002900490600052602060002090601f016020900481019282601f1061024957805160ff1916838001178555610276565b82800160010185558215610276579182015b8281111561027657825182559160200191906001019061025b565b50610282929150610286565b5090565b6102a091905b80821115610282576000815560010161028c565b90565b61021e806102b26000396000f3fe60806040526004361061004a5760003560e01c8063022914a71461004f578063705115d1146100965780638baecc21146100bd5780638da5cb5b146100dc578063f59dfdfb1461010d575b600080fd5b34801561005b57600080fd5b506100826004803603602081101561007257600080fd5b50356001600160a01b031661012a565b604080519115158252519081900360200190f35b3480156100a257600080fd5b506100ab61013f565b60408051918252519081900360200190f35b6100da600480360360208110156100d357600080fd5b5035610145565b005b3480156100e857600080fd5b506100f161018e565b604080516001600160a01b039092168252519081900360200190f35b6100da6004803603602081101561012357600080fd5b503561019d565b60066020526000908152604090205460ff1681565b60075481565b3360009081526006602052604090205460ff1661016157600080fd5b6004546305265c0001811161017557600080fd5b6722b1c8c1227a0000341161018957600080fd5b600455565b6000546001600160a01b031681565b3360009081526006602052604090205460ff166101b957600080fd5b630a4cb80034026305265c008110156101df5760048054630107ac0034020190556101e5565b60048290555b505056fea265627a7a723158202a1f30259d910410942c130c214de987d96a0cc2720fb1a3742767758a1025f964736f6c63430005100032",
  "source": "pragma solidity ^0.5.0;\n\n/**\n * @title Tamacoinchi smart contract, displaying how raising a virtual pet on the blockchain could look like\n * @author Enis Tola\n * @dev Tamacoinchi is a smart contract that allows users to raise their own cute virtual pet.\n * Every transaction is written on the Ethereum blockchain. Feed, pet and raise your new best friend.\n * But be careful: if you're pet starves to death, you have to ask a friend to revive it!\n */\n\ncontract Tamacoinchi {\n    // Creator of the Tamacoinchi\n    address public owner;\n    string ownerName;\n\n    // Pets name, gender, lastTimeFed\n    string name;\n    bool isMale;\n    uint256 lastTimeFed;\n    uint256 affection;\n\n    // a mapping list of pet owner addresses\n    // Necessary to prevent owners from getting multiple pets after one dies\n    mapping(address => bool) public owners;\n\n    // current number of pets\n    uint256 public numberOfPets;\n\n    modifier ownerOnly() {\n        require(owners[msg.sender]);\n        _;\n    }\n\n    modifier nonOwnerOnly() {\n        require(owners[msg.sender]);\n        _;\n    }\n\n    constructor(\n        address _owner,\n        string memory _ownerName,\n        string memory _name,\n        bool _isMale,\n        uint256 _lastTimeFed\n    ) public {\n        owner = _owner;\n        ownerName = _ownerName;\n        name = _name;\n        isMale = _isMale;\n        lastTimeFed = _lastTimeFed;\n        affection = 50;\n    }\n\n    function feed(uint256 currentTime) public payable ownerOnly {\n        // Check whether the amount payed is more than you can feed your pet for a day\n        // 0.5 eth fill \"life\" value to 100%\n        uint256 food = msg.value * (48 * 3600 * 1000);\n\n        // increasing lastTimeFed by amount payed\n        if (food < (24 * 3600 * 1000)) {\n            lastTimeFed = lastTimeFed + msg.value * (4.8 * 3600 * 1000);\n        } else {\n            lastTimeFed = currentTime;\n        }\n    }\n\n    function revive(uint256 currentTime) public payable nonOwnerOnly {\n        // Check if pet is actually dead and if the fee for revival has been payed!\n        // Reset lastTimeFed to currentTime\n        require(currentTime > lastTimeFed + (24 * 3600 * 1000));\n        require(msg.value > 2500000000000000000);\n        lastTimeFed = currentTime;\n    }\n}\n",
  "sourcePath": "/projects/BC-Group7/ethereum/contracts/Tamacoinchi.sol",
  "compiler": {
    "name": "solc",
    "version": "0.5.16+commit.9c3226ce.Emscripten.clang"
  },
  "schemaVersion": "3.4.0",
  "updatedAt": "2021-07-06T07:37:13.989Z",
  "devdoc": {
    "author": "Enis Tola",
    "details": "Tamacoinchi is a smart contract that allows users to raise their own cute virtual pet. Every transaction is written on the Ethereum blockchain. Feed, pet and raise your new best friend. But be careful: if you're pet starves to death, you have to ask a friend to revive it!",
    "methods": {},
    "title": "Tamacoinchi smart contract, displaying how raising a virtual pet on the blockchain could look like"
  },
  "userdoc": {
    "methods": {}
  }
}