{
  "contractName": "Tamacoinchi",
  "abi": [
    {
      "inputs": [
        {
          "internalType": "address",
          "name": "_owner",
          "type": "address"
        },
        {
          "internalType": "string",
          "name": "_ownerName",
          "type": "string"
        },
        {
          "internalType": "string",
          "name": "_name",
          "type": "string"
        },
        {
          "internalType": "bool",
          "name": "_isMale",
          "type": "bool"
        },
        {
          "internalType": "uint256",
          "name": "_lastTimeFed",
          "type": "uint256"
        }
      ],
      "payable": false,
      "stateMutability": "nonpayable",
      "type": "constructor"
    },
    {
      "constant": true,
      "inputs": [],
      "name": "isMale",
      "outputs": [
        {
          "internalType": "bool",
          "name": "",
          "type": "bool"
        }
      ],
      "payable": false,
      "stateMutability": "view",
      "type": "function"
    },
    {
      "constant": true,
      "inputs": [],
      "name": "lastTimeFed",
      "outputs": [
        {
          "internalType": "uint256",
          "name": "",
          "type": "uint256"
        }
      ],
      "payable": false,
      "stateMutability": "view",
      "type": "function"
    },
    {
      "constant": true,
      "inputs": [],
      "name": "name",
      "outputs": [
        {
          "internalType": "string",
          "name": "",
          "type": "string"
        }
      ],
      "payable": false,
      "stateMutability": "view",
      "type": "function"
    },
    {
      "constant": true,
      "inputs": [],
      "name": "owner",
      "outputs": [
        {
          "internalType": "address",
          "name": "",
          "type": "address"
        }
      ],
      "payable": false,
      "stateMutability": "view",
      "type": "function"
    },
    {
      "constant": true,
      "inputs": [],
      "name": "ownerName",
      "outputs": [
        {
          "internalType": "string",
          "name": "",
          "type": "string"
        }
      ],
      "payable": false,
      "stateMutability": "view",
      "type": "function"
    },
    {
      "constant": false,
      "inputs": [
        {
          "internalType": "uint256",
          "name": "currentTime",
          "type": "uint256"
        }
      ],
      "name": "feed",
      "outputs": [],
      "payable": true,
      "stateMutability": "payable",
      "type": "function"
    },
    {
      "constant": false,
      "inputs": [
        {
          "internalType": "uint256",
          "name": "currentTime",
          "type": "uint256"
        }
      ],
      "name": "revive",
      "outputs": [],
      "payable": true,
      "stateMutability": "payable",
      "type": "function"
    }
  ],
  "bytecode": "0x6080604052600080546001600160a01b03191673d0615397654c2c4834a85d879c0c91468bce8f1b17905534801561003657600080fd5b506040516106db3803806106db833981810160405260a081101561005957600080fd5b81516020830180516040519294929383019291908464010000000082111561008057600080fd5b90830190602082018581111561009557600080fd5b82516401000000008111828201881017156100af57600080fd5b82525081516020918201929091019080838360005b838110156100dc5781810151838201526020016100c4565b50505050905090810190601f1680156101095780820380516001836020036101000a031916815260200191505b506040526020018051604051939291908464010000000082111561012c57600080fd5b90830190602082018581111561014157600080fd5b825164010000000081118282018810171561015b57600080fd5b82525081516020918201929091019080838360005b83811015610188578181015183820152602001610170565b50505050905090810190601f1680156101b55780820380516001836020036101000a031916815260200191505b5060409081526020828101519290910151600180546001600160a01b0319166001600160a01b038a16179055865192945092506101f79160029187019061022a565b50825161020b90600390602086019061022a565b506004805460ff191692151592909217909155600555506102c5915050565b828054600181600116156101000203166002900490600052602060002090601f016020900481019282601f1061026b57805160ff1916838001178555610298565b82800160010185558215610298579182015b8281111561029857825182559160200191906001019061027d565b506102a49291506102a8565b5090565b6102c291905b808211156102a457600081556001016102ae565b90565b610407806102d46000396000f3fe6080604052600436106100705760003560e01c80638baecc211161004e5780638baecc211461013d5780638d9ec7931461015c5780638da5cb5b14610183578063f59dfdfb146101b457610070565b806306fdde0314610075578063654a573c146100ff57806365ac232014610128575b600080fd5b34801561008157600080fd5b5061008a6101d1565b6040805160208082528351818301528351919283929083019185019080838360005b838110156100c45781810151838201526020016100ac565b50505050905090810190601f1680156100f15780820380516001836020036101000a031916815260200191505b509250505060405180910390f35b34801561010b57600080fd5b5061011461025f565b604080519115158252519081900360200190f35b34801561013457600080fd5b5061008a610268565b61015a6004803603602081101561015357600080fd5b50356102c0565b005b34801561016857600080fd5b50610171610344565b60408051918252519081900360200190f35b34801561018f57600080fd5b5061019861034a565b604080516001600160a01b039092168252519081900360200190f35b61015a600480360360208110156101ca57600080fd5b5035610359565b6003805460408051602060026001851615610100026000190190941693909304601f810184900484028201840190925281815292918301828280156102575780601f1061022c57610100808354040283529160200191610257565b820191906000526020600020905b81548152906001019060200180831161023a57829003601f168201915b505050505081565b60045460ff1681565b6002805460408051602060018416156101000260001901909316849004601f810184900484028201840190925281815292918301828280156102575780601f1061022c57610100808354040283529160200191610257565b6001546001600160a01b03163314156102d857600080fd5b6005546305265c000181116102ec57600080fd5b671bc16d674ec8000034101561030157600080fd5b6005819055600080546040516001600160a01b03909116913480156108fc02929091818181858888f19350505050158015610340573d6000803e3d6000fd5b5050565b60055481565b6001546001600160a01b031681565b6001546001600160a01b0316331461037057600080fd5b670de0b6b3a764000034111561038a576005819055610398565b600580546283d60034020190555b600080546040516001600160a01b03909116913480156108fc02929091818181858888f19350505050158015610340573d6000803e3d6000fdfea265627a7a723158202e3fe558c5f9cfe252bef4a8a5ef8ca977a5fc031abf1ea28d7a03de590017f164736f6c63430005100032",
  "source": "pragma solidity ^0.5.0;\n\n/**\n * @title Tamacoinchi smart contract, displaying how raising a virtual pet on the blockchain could look like\n * @author Enis Tola\n * @dev Tamacoinchi is a smart contract that allows users to raise their own cute virtual pet.\n * Every transaction is written on the Ethereum blockchain. Feed, pet and raise your new best friend.\n * But be careful: if you're pet starves to death, you have to ask a friend to revive it!\n */\n\ncontract Tamacoinchi {\n    // Recipient of all payable transactions -> creator of tamacoinchi\n    address payable creatorOfThisContract =\n        0xD0615397654C2C4834a85D879C0C91468bcE8f1b;\n\n    // Creator of the Tamacoinchi\n    address public owner;\n    string public ownerName;\n\n    // Pets name, gender, lastTimeFed, affection\n    string public name;\n    bool public isMale;\n    uint256 public lastTimeFed;\n\n    modifier ownerOnly() {\n        require(msg.sender == owner);\n        _;\n    }\n    modifier nonOwnerOnly() {\n        require(msg.sender != owner);\n        _;\n    }\n\n    constructor(\n        address _owner,\n        string memory _ownerName,\n        string memory _name,\n        bool _isMale,\n        uint256 _lastTimeFed\n    ) public {\n        owner = _owner;\n        ownerName = _ownerName;\n        name = _name;\n        isMale = _isMale;\n        lastTimeFed = _lastTimeFed;\n    }\n\n    function feed(uint256 currentTime) public payable ownerOnly {\n        // 0.1 eth increases \"life\" by 10%\n\n        // increasing lastTimeFed by amount payed\n        if (msg.value > 1000000000000000000) {\n            lastTimeFed = currentTime;\n        } else {\n            lastTimeFed = lastTimeFed + msg.value * 24 * 3600 * (1000 / 10);\n        }\n\n        creatorOfThisContract.transfer(msg.value);\n    }\n\n    function revive(uint256 currentTime) public payable nonOwnerOnly {\n        // Check if pet is actually dead and if the fee for revival has been payed!\n        // Reset lastTimeFed to currentTime\n        require(currentTime > (lastTimeFed + (24 * 3600 * 1000)));\n        require(msg.value >= 2000000000000000000);\n        lastTimeFed = currentTime;\n\n        creatorOfThisContract.transfer(msg.value);\n    }\n}\n",
  "sourcePath": "/projects/BC-Group7/ethereum/contracts/Tamacoinchi.sol",
  "compiler": {
    "name": "solc",
    "version": "0.5.16+commit.9c3226ce.Emscripten.clang"
  },
  "schemaVersion": "3.4.0",
  "updatedAt": "2021-07-06T12:32:22.479Z",
  "devdoc": {
    "author": "Enis Tola",
    "details": "Tamacoinchi is a smart contract that allows users to raise their own cute virtual pet. Every transaction is written on the Ethereum blockchain. Feed, pet and raise your new best friend. But be careful: if you're pet starves to death, you have to ask a friend to revive it!",
    "methods": {},
    "title": "Tamacoinchi smart contract, displaying how raising a virtual pet on the blockchain could look like"
  },
  "userdoc": {
    "methods": {}
  }
}